:100000000C9462000C948A000C948A000C948A0070
:100010000C948A000C948A000C948A000C948A0038
:100020000C948A000C948A000C948A000C948A0028
:100030000C948A000C948A000C948A000C948A0018
:100040000C9445030C948A000C948A000C948A004A
:100050000C948A000C948A000C948A000C948A00F8
:100060000C948A000C948A000000000023002600F3
:10007000290000000000240027002A0000000000E2
:10008000250028002B0004040404040404040202D4
:100090000202020203030303030301020408102007
:1000A0004080010204081020010204081020000012
:1000B0000008000201000003040700000000000027
:1000C0000000E40411241FBECFEFD8E0DEBFCDBF97
:1000D00011E0A0E0B1E0EAEBFCE002C005900D9277
:1000E000AC36B107D9F721E0ACE6B1E001C01D9212
:1000F000AF38B207E1F710E0C2E6D0E004C02197C4
:10010000FE010E945506C136D107C9F70E94D403EB
:100110000C945B060C94000090E0FC01E255FF4F4C
:100120002491FC01E656FF4F3491FC01EA57FF4F42
:10013000E491EE23C9F0222339F0233001F1A8F431
:10014000213019F1223029F1F0E0EE0FFF1FE458C1
:10015000FF4FA591B4918FB7F894EC91611126C02F
:1001600030953E233C938FBF08952730A9F0283067
:10017000C9F0243049F7809180008F7D03C08091C1
:1001800080008F7780938000DFCF84B58F7784BD28
:10019000DBCF84B58F7DFBCF8091B0008F778093CC
:1001A000B000D2CF8091B0008F7DF9CF3E2BDACF57
:1001B000CF93DF9390E0FC01E656FF4F24918A57DE
:1001C0009F4FFC0184918823D1F090E0880F991F04
:1001D000FC01EE58FF4FA591B491FC01E458FF4F8C
:1001E000C591D49161110EC09FB7F8948C91E22F04
:1001F000E0958E238C932881E223E8839FBFDF91D3
:10020000CF9108958FB7F894EC91E22BEC938FBFC8
:10021000F6CF3FB7F8948091730190917401A0914B
:100220007501B091760126B5A89B05C02F3F19F046
:100230000196A11DB11D3FBFBA2FA92F982F882766
:10024000BC01CD01620F711D811D911D42E0660F41
:10025000771F881F991F4A95D1F708958F929F9213
:10026000AF92BF92CF92DF92EF92FF924B015C016F
:100270000E9409016B017C010E9409016C197D0932
:100280008E099F09683E734081059105A8F321E01E
:10029000821A9108A108B10888EEC80E83E0D81E22
:1002A000E11CF11C81149104A104B10429F7FF9011
:1002B000EF90DF90CF90BF90AF909F908F90089578
:1002C000AF92BF92CF92DF92EF92FF920F931F9364
:1002D000CF93DF936C017B018B01040F151FEB01A2
:1002E0005E01AE18BF08C017D10759F06991D60159
:1002F000ED91FC910190F081E02DC6010995892BCB
:1003000079F7C501DF91CF911F910F91FF90EF9089
:10031000DF90CF90BF90AF900895089590E080E077
:1003200008958F929F92AF92BF920F931F93CF9396
:10033000DF93CDB7DEB7A1970FB6F894DEBF0FBE3F
:10034000CDBF19A2423008F44AE08E010F5D1F4F65
:10035000842E912CB12CA12CA50194010E9433066E
:10036000E62FB901CA01EA3044F5E05DD801EE9309
:100370008D01232B242B252B79F790E080E010971B
:1003800069F0FD0101900020E9F73197AF014A1BA8
:100390005B0BBD0187E791E00E946001A1960FB65B
:1003A000F894DEBF0FBECDBFDF91CF911F910F91AB
:1003B000BF90AF909F908F900895E95CD7CFFC01DC
:1003C00001900020E9F73197AF01481B590BBC01A0
:1003D00087E791E00C946001CF93DF93EC0160E03C
:1003E0008E810E948C0061E08E810E948C0060E012
:1003F0008E810E948C008BE891E00197F1F7DF91EC
:10040000CF910895CF92DF92EF92FF920F931F93B7
:10041000CF93DF936C017C0187E0E80EF11CD0E004
:10042000C0E0062F10E0B8010C2E02C0759567954C
:100430000A94E2F76170F70181917F010E948C00BC
:100440002196C430D10579F7C601DF91CF911F9174
:100450000F91FF90EF90DF90CF900C94EC01CF9232
:10046000DF92EF92FF920F931F93CF93DF93EC01F4
:10047000F62E642F8C810E948C008D818F3F19F0A5
:1004800060E00E948C000F2D10E08F8584FF25C056
:100490006E0187E0C80ED11CF12CE12CB8010E2CA6
:1004A00002C0759567950A94E2F76170F601819133
:1004B0006F010E948C00FFEFEF1AFF0A88E0E81638
:1004C000F10461F7CE01DF91CF911F910F91FF9061
:1004D000EF90DF90CF900C94EC01B80184E075951B
:1004E00067958A95E1F7CE010E9402026F2DCE0139
:1004F000DF91CF911F910F91FF90EF90DF90CF9000
:100500000C94020240E0682F87E791E00C942F02E0
:1005100081E00E9482028BE39FE10197F1F7089549
:10052000CF93DF93823029F4909186019860909365
:10053000860180938A0110928B0180E480938C0164
:1005400080E180938D0180E580938E0161E0809150
:100550007B010E94D80080917C018F3F19F061E0FF
:100560000E94D80061E080917D010E94D800C7E719
:10057000D1E09E01275731408091860184FD0BC058
:1005800084E090E021962817390744F461E08E81D9
:100590000E94D800EECF88E090E0F4CF8BE39DE09E
:1005A0000197F1F760E080917B010E948C0060E090
:1005B00080917D010E948C0080917C018F3F19F019
:1005C00060E00E948C008091860184FD34C063E06D
:1005D00087E791E00E940202CBE4D6E4CE010197C6
:1005E000F1F763E087E791E00E9402022197F1F7BB
:1005F00063E087E791E00E94020283E592E00197C1
:10060000F1F762E087E791E00E94020280918601A3
:1006100080620E94820284E0809387018CE00E94C5
:1006200082020E94880282E08093880186E0DF9146
:10063000CF910C94820280620E9482028BE496E445
:100640000197F1F78091860180620E94820283E522
:1006500092E00197F1F78091860180620E94820208
:10066000D5CF90918A01891710F08FEF890FE82F6D
:10067000F0E0E958FE4F848980680C94820241E0E2
:100680000E942F0281E090E008951F920F920FB612
:100690000F9211242F933F938F939F93AF93BF9308
:1006A00080916F0190917001A0917101B0917201E0
:1006B00030916E0123E0230F2D3758F50196A11DCF
:1006C000B11D20936E0180936F0190937001A093F0
:1006D0007101B09372018091730190917401A091A6
:1006E0007501B09176010196A11DB11D8093730132
:1006F00090937401A0937501B0937601BF91AF916F
:100700009F918F913F912F910F900FBE0F901F904F
:10071000189526E8230F0296A11DB11DD2CFCF92C6
:10072000DF92EF92FF920F931F93E82FF92F05C0EE
:10073000015011092109310961F190819623941723
:10074000B9F305C0015011092109310911F1908156
:1007500096239413F7CFC12CD12CE12CF12C0AC095
:100760008FEFC81AD80AE80AF80A0C151D052E05DD
:100770003F0579F080818623841791F36C2D7D2DC0
:100780008E2D9F2D1F910F91FF90EF90DF90CF90B6
:10079000089560E070E080E090E01F910F91FF907D
:1007A000EF90DF90CF900895789484B5826084BDF7
:1007B00084B5816084BD85B5826085BD85B5816065
:1007C00085BD80916E00816080936E0010928100E3
:1007D000809181008260809381008091810081609E
:1007E000809381008091800081608093800080915F
:1007F000B10084608093B1008091B00081608093EB
:10080000B00080917A00846080937A0080917A00B1
:10081000826080937A0080917A00816080937A0070
:1008200080917A00806880937A001092C10082E003
:100830000E94900261E08CE00E94D80060E08BE0B2
:100840000E94D80080E00E9431038CE091E00E9479
:10085000DF0181E00E9431038BE191E00E94DF0122
:1008600060ED77E080E090E00E942E010E94880217
:1008700080E00E9431038BE291E00E94DF0181E081
:100880000E9431038BE391E00E94DF0160ED77E08D
:1008900080E090E00E942E010E948802C3E0D0E038
:1008A00093E2E92EF12C25EAC22E20E0D22E31E986
:1008B000A32E30E0B32E40E0842E40E0942E60E082
:1008C0008CE00E948C00CE010197F1F761E08CE092
:1008D0000E948C00C7010197F1F760E08CE00E9454
:1008E0008C00F6016491F5018491E82FF0E0EE0FA1
:1008F000FF1FE859FF4F8591949100E412E42FE027
:1009000030E0462F0E948F03611571058105910526
:1009100029F06F5F7F4F8F4F9F4F9F700E943A0566
:1009200026E933E44BE05DE30E949E0520E030E0E1
:1009300040E05FE30E949E050E94020570936D01F6
:1009400060936C0180E00E9431038CE491E00E948E
:10095000DF016AE070E080E090E00E942E0181E01B
:100960000E9431038DE591E00E94DF0140906C010F
:1009700050906D01052C000C660877084AE0C30111
:10098000B20177FE0EC041E06DE287E791E00E9480
:100990002F0266277727CB01641975098609970905
:1009A0004AE00E94910187E691E00E94DF016AE03F
:1009B00070E080E090E00E942E018114910409F41F
:1009C0007ECF0E9400007BCFE7E7F1E01382128226
:1009D00084E091E09183808382E084838FEF85833C
:1009E00083E0868384E0878385E0808786E0818753
:1009F00087E082871386148615861686178681E01F
:100A00000C9490020E9409056894B1110C94980509
:100A100008950E947D0588F09F5798F0B92F992777
:100A2000B751B0F0E1F0660F771F881F991F1AF0D9
:100A3000BA95C9F714C0B13091F00E949705B1E0A2
:100A400008950C949705672F782F8827B85F39F0A1
:100A5000B93FCCF3869577956795B395D9F73EF472
:100A600090958095709561957F4F8F4F9F4F08951A
:100A7000E89409C097FB3EF4909580957095619538
:100A80007F4F8F4F9F4F9923A9F0F92F96E9BB27EE
:100A90009395F695879577956795B795F111F8CF6A
:100AA000FAF4BB0F11F460FF1BC06F5F7F4F8F4FD5
:100AB0009F4F16C0882311F096E911C0772321F0CB
:100AC0009EE8872F762F05C0662371F096E8862F63
:100AD00070E060E02AF09A95660F771F881FDAF7BA
:100AE000880F9695879597F9089557FD9058440F6C
:100AF000551F59F05F3F71F04795880F97FB991F7D
:100B000061F09F3F79F08795089512161306140639
:100B1000551FF2CF4695F1DF08C0161617061806C6
:100B2000991FF1CF86957105610508940895E894A1
:100B3000BB2766277727CB0197F908950E94B10557
:100B40000C9422060E94140638F00E941B0620F026
:100B5000952311F00C940B060C94110611240C949F
:100B600098050E94750570F3959FC1F3950F50E0AD
:100B7000551F629FF001729FBB27F00DB11D639F4F
:100B8000AA27F00DB11DAA1F649F6627B00DA11DF5
:100B9000661F829F2227B00DA11D621F739FB00D9B
:100BA000A11D621F839FA00D611D221F749F33270B
:100BB000A00D611D231F849F600D211D822F762FA4
:100BC0006A2F11249F5750409AF0F1F088234AF081
:100BD000EE0FFF1FBB1F661F771F881F91505040ED
:100BE000A9F79E3F510580F00C940B060C949805D4
:100BF0005F3FE4F3983ED4F3869577956795B79574
:100C0000F795E7959F5FC1F7FE2B880F911D96958D
:100C1000879597F9089597F99F6780E870E060E0FD
:100C200008959FEF80EC089500240A941616170685
:100C300018060906089500240A94121613061406CD
:100C400005060895092E0394000C11F4882352F030
:100C5000BB0F40F4BF2B11F460FF04C06F5F7F4FE8
:100C60008F4F9F4F0895A1E21A2EAA1BBB1BFD01B7
:100C70000DC0AA1FBB1FEE1FFF1FA217B307E4077B
:100C8000F50720F0A21BB30BE40BF50B661F771FD3
:100C9000881F991F1A9469F76095709580959095B3
:100CA0009B01AC01BD01CF010895EE0FFF1F059020
:0A0CB000F491E02D0994F894FFCFB1
:100CBA00000000003F0360018E018D01202044697D
:100CCA007374616E6365202020200020204D6561C9
:100CDA00737572656D656E74202000202020204D8A
:100CEA006164652042792020202000202020204AAB
:100CFA006565742E6F726720202020004469737422
:100D0A00616E6365204D65617375722E0044697367
:0C0D1A0074616E63653A0020436D200098
:00000001FF
