:020000040000FA
:100000000C945D000C9485000C9485000C94850084
:100010000C9485000C9485000C9485000C9485004C
:100020000C9485000C9485000C9485000C9485003C
:100030000C9485000C9485000C9485000C9485002C
:100040000C947B050C9485000C94EB050C94C50571
:100050000C9485000C9485000C9485000C9485000C
:100060000C941D060C94850000000008000201009D
:100070000003040700000000000000000000000072
:10008000250028002B0000000000240027002A0083
:10009000040404040404040402020202020203032E
:1000A0000303030301020408102040800102040836
:1000B0001020010204081020380711241FBECFEFC2
:1000C000D8E0DEBFCDBF11E0A0E0B1E0ECE8F6E1A2
:1000D00002C005900D92A434B107D9F722E0A4E440
:1000E000B1E001C01D92AB37B207E1F710E0CDE5FA
:1000F000D0E004C02197FE010E943E0BCC35D10711
:10010000C9F70E9482070C94440B0C94000090E005
:10011000FC01EC55FF4F249180579F4FFC018491C7
:10012000882399F090E0880F991FFC01EA57FF4F50
:10013000A591B491FC01E458FF4F859194918FB73C
:10014000F894EC91E22BEC938FBF089590E0FC01C2
:10015000E859FF4F2491FC01EC55FF4F3491FC010D
:10016000E057FF4FE491EE23C9F0222339F023300A
:1001700001F1A8F4213019F1223029F1F0E0EE0F5D
:10018000FF1FE458FF4FA591B4918FB7F894EC91FD
:10019000611126C030953E233C938FBF08952730D0
:1001A000A9F02830C9F0243049F7809180008F7D74
:1001B00003C0809180008F7780938000DFCF84B56B
:1001C0008F7784BDDBCF84B58F7DFBCF8091B0006E
:1001D0008F778093B000D2CF8091B0008F7DF9CF20
:1001E0003E2BDACF3FB7F8948091C2019091C301C2
:1001F000A091C401B091C50126B5A89B05C02F3FB1
:1002000019F00196A11DB11D3FBFBA2FA92F982F3C
:100210008827BC01CD01620F711D811D911D42E037
:10022000660F771F881F991F4A95D1F70895AF92DF
:10023000BF92CF92DF92EF92FF920F931F93CF93D3
:10024000DF936C017B018B01040F151FEB015E0135
:10025000AE18BF08C017D10759F06991D601ED91CA
:10026000FC910190F081E02DC6010995892B79F769
:10027000C501DF91CF911F910F91FF90EF90DF901B
:10028000CF90BF90AF900895FC01538D448D252FE2
:1002900030E0842F90E0821B930B541710F0CF9620
:1002A000089501970895FC01918D828D981761F052
:1002B000A28DAE0FBF2FB11D5D968C91928D9F5F69
:1002C0009F73928F90E008958FEF9FEF0895FC0148
:1002D000918D828D981731F0828DE80FF11D858DFB
:1002E00090E008958FEF9FEF0895FC01918D228D8E
:1002F000892F90E0805C9F4F821B91098F73992713
:10030000089586EC91E00E94750121E0892B09F4A3
:1003100020E0822F089580E090E0892B29F00E9450
:10032000810181110C9400000895FC01A48DA80F97
:10033000B92FB11DA35ABF4F2C91848D90E0019627
:100340008F739927848FA689B7892C93A089B18947
:100350008C91837080648C93938D848D981306C0E8
:100360000288F389E02D80818F7D80830895EF924C
:10037000FF920F931F93CF93DF93EC0181E0888F5F
:100380009B8D8C8D98131AC0E889F989808185FF2F
:1003900015C09FB7F894EE89FF896083E889F989D1
:1003A00080818370806480839FBF81E090E0DF91D3
:1003B000CF911F910F91FF90EF900895F62E0B8D26
:1003C00010E00F5F1F4F0F731127E02E8C8D8E11E1
:1003D0000CC00FB607FCFACFE889F989808185FF48
:1003E000F5CFCE010E949501F1CFEB8DEC0FFD2FE3
:1003F000F11DE35AFF4FF0829FB7F8940B8FEA8903
:10040000FB8980818062CFCFCF93DF93EC01888D11
:100410008823B9F0AA89BB89E889F9898C9185FD7F
:1004200003C0808186FD0DC00FB607FCF7CF8C910D
:1004300085FFF2CF808185FFEDCFCE010E9495012F
:10044000E9CFDF91CF910895089520916B01260F98
:100450003327331F21323105ECF420918F01FC0149
:1004600090E080E0243069F082E00895A0916B0173
:100470002191AC01455B5E4FA40FB52FB11D2C93AC
:100480000196861798F380916B01680F60936B015A
:1004900080E0089581E0089508958FEF9FEF08951B
:1004A0008FEF9FEF08958091440190E091958195A1
:1004B00091090895CF93DF93CB01EA01642F0E9445
:1004C0002502CE01DF91CF910895CF93DF931F9244
:1004D000CDB7DEB7698361E0CE0101960E942502A7
:1004E00081E090E00F90DF91CF91089590E080E05F
:1004F0000895FB0101900020E9F73197AF01461BF9
:10050000570BDC01ED91FC910280F381E02D099401
:100510008F929F92AF92BF92EF92FF920F931F9391
:10052000CF93DF93CDB7DEB7A1970FB6F894DEBFB8
:100530000FBECDBF7C01FA01CB0119A2223008F415
:100540002AE08E010F5D1F4F822E912CB12CA12C21
:10055000BF01A50194010E941C0BF901CA016A3078
:100560000CF5605DD8016E938D01232B242B252B78
:1005700079F790E080E0109721F0BD01C7010E945B
:100580007902A1960FB6F894DEBF0FBECDBFDF9102
:10059000CF911F910F91FF90EF90BF90AF909F90E0
:1005A0008F900895695CDECF2F923F924F925F92B9
:1005B0006F927F928F929F92AF92BF92CF92DF9273
:1005C000EF92FF921F93CF93DF93EC016A017B01BF
:1005D000722EAB019601CB01B6010E94170B6EE1A2
:1005E00071E0811126C046015701E894B7F82FEF5A
:1005F0003FEF4FE75FE7C501B4010E94170B811180
:100600000CC02FEF3FEF4FE75FE7C501B4010E9439
:100610004D0962E271E0181664F02FEF3FEF4FE7EB
:100620005FE4C701B6010E94A50A1816B4F466E299
:1006300071E0CE01DF91CF911F91FF90EF90DF909D
:10064000CF90BF90AF909F908F907F906F905F9072
:100650004F903F902F900C9479022FEF3FEF4FE790
:100660005FECC701B6010E944D0987FDE0CF20E095
:1006700030E0A901C701B6010E944D09312C212C9F
:1006800087FF0DC0E881F9810190F081E02D6DE2D6
:10069000CE0109951C01F7FAF094F7F8F09410E0F8
:1006A00060E070E080E09FE3711641F020E030E010
:1006B00040E251E40E9452091F5FF6CFA701960164
:1006C0000E94E1082B013C010E94C4094B015C011E
:1006D0002AE0BC01A401CE010E9488027C01E20C48
:1006E000F31C1123E1F1C501B4010E94F3099B0140
:1006F000AC01C301B2010E94E0084B015C01E8813A
:10070000F9810190F081E02D6EE2CE010995E80EAD
:10071000F91E115020F120E030E040E251E4C50123
:10072000B4010E94AA0A2B013C010E94C4094B019A
:10073000B12CA12C2AE0B501A401CE010E948802AF
:10074000E80EF91EC501B4010E94F3099B01AC013A
:10075000C301B2010E94E0084B015C01DACFC7017E
:10076000DF91CF911F91FF90EF90DF90CF90BF90DE
:10077000AF909F908F907F906F905F904F903F9041
:100780002F900895CF93DF93EC0160E08E810E945B
:10079000A60061E08E810E94A60060E08E810E942A
:1007A000A6008BE891E00197F1F7DF91CF910895D2
:1007B000CF92DF92EF92FF920F931F93CF93DF932D
:1007C0006C017C0187E0E80EF11CD0E0C0E0062F50
:1007D00010E0B8010C2E02C0759567950A94E2F7F7
:1007E0006170F70181917F010E94A6002196C430BB
:1007F000D10579F7C601DF91CF911F910F91FF903D
:10080000EF90DF90CF900C94C203CF92DF92EF92E3
:10081000FF920F931F93CF93DF93EC01F62E642F7B
:100820008C810E94A6008D818F3F19F060E00E94AC
:10083000A6000F2D10E08F8584FF25C06E0187E094
:10084000C80ED11CF12CE12CB8010E2C02C07595FC
:1008500067950A94E2F76170F60181916F010E9439
:10086000A600FFEFEF1AFF0A88E0E816F10461F72F
:10087000CE01DF91CF911F910F91FF90EF90DF900C
:10088000CF900C94C203B80184E0759567958A9562
:10089000E1F7CE010E94D8036F2DCE01DF91CF91F9
:1008A0001F910F91FF90EF90DF90CF900C94D803A1
:1008B00040E0682F83E692E00C940504CF93DF9329
:1008C000823029F490917202986090937202809322
:1008D00076021092770280E48093780280E1809320
:1008E000790280E580937A02809167020E948700F6
:1008F000809168028F3F11F00E9487008091690209
:100900000E948700C3E6D2E09E01235632408091C8
:10091000720284FD0AC084E090E02196281739070E
:100920003CF48E810E948700EFCF88E090E0F5CF05
:100930008BE39DE00197F1F760E0809167020E94F0
:10094000A60060E0809169020E94A6008091680282
:100950008F3F19F060E00E94A6008091720284FD32
:1009600039C063E083E692E00E94D803CBE4D6E48A
:10097000CE010197F1F763E083E692E00E94D8038D
:100980002197F1F763E083E692E00E94D80383E5C4
:1009900092E00197F1F762E083E692E00E94D803CB
:1009A0008091720280620E94580484E080937302F6
:1009B0008CE00E94580481E00E9458048BE39FE180
:1009C0000197F1F782E08093740286E0DF91CF9186
:1009D0000C94580480620E9458048BE496E40197BA
:1009E000F1F78091720280620E94580483E592E0E0
:1009F0000197F1F78091720280620E945804D0CF73
:100A000041E00E94050481E090E008951F93CF9398
:100A1000DF9385ED8093BC00809147019091480160
:100A2000A0914901B0914A010796A11DB11D23E093
:100A3000B695A795979587952A95D1F72091BC00F3
:100A400024FD03C010928F0152C040914701509184
:100A500048016091490170914A01452B462B472B73
:100A600069F30097A105B10541F02AE22A95F1F753
:100A700000C00197A109B109E1CF80914601C1E011
:100A8000C0934501882399F1D091B8001091BA0024
:100A90008091BC008A7B8093BC0060E082E10E9470
:100AA000A60060E083E10E94A60010928F01C0932F
:100AB00091011092900161E082E10E94A60061E044
:100AC00083E10E94A6008091B9008E7F8093B900D7
:100AD0008091B9008D7F8093B90088E48093B8003D
:100AE00085E48093BC001093BA00D093B800DF91E6
:100AF000CF911F9108951F920F920FB60F9211245C
:100B00002F933F938F939F93AF93BF938091BE0199
:100B10009091BF01A091C001B091C1013091BD0180
:100B200023E0230F2D3758F50196A11DB11D209309
:100B3000BD018093BE019093BF01A093C001B0930B
:100B4000C1018091C2019091C301A091C401B091F3
:100B5000C5010196A11DB11D8093C2019093C301EF
:100B6000A093C401B093C501BF91AF919F918F91A4
:100B70003F912F910F900FBE0F901F90189526E870
:100B8000230F0296A11DB11DD2CF1F920F920FB657
:100B90000F9211242F933F934F935F936F937F9303
:100BA0008F939F93AF93BF93EF93FF9386EC91E066
:100BB0000E949501FF91EF91BF91AF919F918F910D
:100BC0007F916F915F914F913F912F910F900FBE49
:100BD0000F901F9018951F920F920FB60F9211242D
:100BE0002F938F939F93EF93FF93E091D601F09112
:100BF000D7018081E091DC01F091DD0182FD1BC015
:100C000090818091DF018F5F8F732091E0018217C7
:100C100041F0E091DF01F0E0EA53FE4F958F8093C1
:100C2000DF01FF91EF919F918F912F910F900FBE58
:100C30000F901F9018958081F4CF1F920F920FB6DE
:100C40000F9211242F933F934F935F936F937F9352
:100C50008F939F93AF93BF93EF93FF938091B900CE
:100C6000887F803609F44AC0F0F5883209F4A5C0BF
:100C700018F5803109F499C0B8F4882309F4F5C057
:100C8000883009F492C0FF91EF91BF91AF919F918D
:100C90008F917F916F915F914F913F912F910F9025
:100CA0000FBE0F901F901895883109F486C08032CE
:100CB00051F780938E0114C0803409F49BC040F436
:100CC0008033B9F38833F9F680938E0185ECAEC09A
:100CD000803509F483C0883509F494C0883499F6C6
:100CE0000E940605D0CF883909F48AC038F58837C4
:100CF00029F050F4883611F0803729F683E080938C
:100D00008F0110928D0155C0883809F479C080395F
:100D100019F0803809F0B7CF80918D01803208F04A
:100D20006FC0E0918D0181E08E0F80938D018091E5
:100D3000BB00F0E0E359FE4F80833BC0803B39F0BD
:100D4000D0F4803A09F477C0883A09F09CCF84E067
:100D500080938F0110926C0110926B01F0E0E0E043
:100D6000099580916B0181110FC081E080936B0127
:100D700010924B0109C0803C09F4A8CF883C09F4CB
:100D8000A5CF883B09F07FCFE0916C0181E08E0F09
:100D900080936C01F0E0E55BFE4F80818093BB00A7
:100DA00090916C0180916B0129C08091B401809376
:100DB000BB0085EC8093BC0066CF9091B30180911D
:100DC000B201981758F5E091B30181E08E0F80933E
:100DD000B301F0E0EE56FE4F8081E9CFE091B30120
:100DE00081E08E0F8093B3018091BB00F0E0EE565E
:100DF000FE4F80839091B3018091B2019817C8F2A1
:100E000085E8D8CFE091B30181E08E0F8093B301E4
:100E10008091BB00F0E0EE56FE4F808380919101FF
:100E200081115ECF81E08093900184EA8093BC00C1
:100E300010928F0128CF85EC8093BC0010928F0117
:100E400080918D01803230F4E0918D01F0E0E35922
:100E5000FE4F108260918D0170E08DE691E0F0E030
:100E6000E0E0099510928D010ECF10928E0138CFDF
:100E7000E6ECF1E01382128288EE93E0A0E0B0E0AD
:100E800084839583A683B78384E091E091838083F4
:100E900085EC90E09587848784EC90E0978786873F
:100EA00080EC90E0918B808B81EC90E0938B828B37
:100EB00082EC90E0958B848B86EC90E0978B868B10
:100EC000118E128E138E148EE3E6F2E013821282DC
:100ED00086E191E09183808382E084838FEF858334
:100EE00083E0868384E0878385E0808786E081874E
:100EF00087E082871386148615861686178681E01A
:100F00000C945E04789484B5826084BD84B581605D
:100F100084BD85B5826085BD85B5816085BD8091C4
:100F20006E00816080936E0010928100809181003C
:100F30008260809381008091810081608093810034
:100F4000809180008160809380008091B1008460F6
:100F50008093B1008091B00081608093B000809157
:100F60007A00846080937A0080917A008260809316
:100F70007A0080917A00816080937A0080917A0073
:100F8000806880937A001092C10082E00E945E0423
:100F9000E091D601F091D70182E08083E091D20107
:100FA000F091D3011082E091D401F091D5018FEC42
:100FB00080831092DE01E091DA01F091DB0186E09E
:100FC0008083E091D801F091D90180818061808394
:100FD000E091D801F091D901808188608083E0910F
:100FE000D801F091D901808180688083E091D80197
:100FF000F091D90180818F7D808310E4C0E0D0E042
:1010000010937C0080917A00806480937A008091B4
:101010007A0086FDFCCF6091780070917900072EF0
:10102000000C880B990B0E94F50920E030EC4FE78B
:1010300054E40E94520923E333E343E550E40E9461
:10104000AA0A6093B9017093BA018093BB0190938F
:10105000BC0123E333E343E550E40E94520920E05E
:1010600030E048E453E40E94AA0A6093B50170930B
:10107000B6018093B7019093B801E1E080917602C8
:101080008111E0E0E195F0E0ED59FD4F8489806841
:101090000E9458046AE271E083E692E00E947902BD
:1010A0004091B9015091BA016091BB017091BC01AE
:1010B00022E083E692E00E94D4026FE271E083E6D0
:1010C00092E00E947902E0917602E23008F076C068
:1010D000E150F0E0ED59FD4F848980680E9458048A
:1010E00063E371E083E692E00E9479024091B501EA
:1010F0005091B6016091B7017091B80122E083E68A
:1011000092E00E94D4026AE371E083E692E00E94DA
:1011100079024091B9015091BA016091BB0170917F
:10112000BC0122E086EC91E00E94D4026EE371E003
:1011300086EC91E00E9479024091B5015091B60190
:101140006091B7017091B80122E086EC91E00E94B5
:10115000D40260E471E086EC91E00E9479020E9482
:10116000F2004B015C018AE0C82ED12CE12CF12C5D
:101170000E94F200681979098A099B09683E734048
:1011800081059105A8F321E0C21AD108E108F10810
:1011900088EE880E83E0981EA11CB11CC114D104F6
:1011A000E104F10429F7209709F42ACF0E94810174
:1011B000882309F425CF0E94000022CFE1E089CFE7
:1011C0005058BB27AA270E94F8080C946B0A0E946B
:1011D0005D0A38F00E94640A20F039F49F3F19F448
:1011E00026F40C945A0A0EF4E095E7FB0C94540A8A
:1011F000E92F0E947C0A58F3BA1762077307840725
:10120000950720F079F4A6F50C949E0A0EF4E0956B
:101210000B2EBA2FA02D0B01B90190010C01CA01B0
:10122000A0011124FF27591B99F0593F50F4503E5B
:1012300068F11A16F040A22F232F342F4427585F4D
:10124000F3CF469537952795A795F0405395C9F765
:101250007EF41F16BA0B620B730B840BBAF091501D
:10126000A1F0FF0FBB1F661F771F881FC2F70EC0BC
:10127000BA0F621F731F841F48F48795779567958F
:10128000B795F7959E3F08F0B0CF9395880F08F07B
:101290009927EE0F9795879508950E94300A08F4D4
:1012A00081E008950E9466090C946B0A0E94640A0A
:1012B00058F00E945D0A40F029F45F3F29F00C9439
:1012C000540A51110C949F0A0C945A0A0E947C0AE9
:1012D00068F39923B1F3552391F3951B550BBB2765
:1012E000AA2762177307840738F09F5F5F4F220FAA
:1012F000331F441FAA1FA9F335D00E2E3AF0E0E8A1
:1013000032D091505040E695001CCAF72BD0FE2FEA
:1013100029D0660F771F881FBB1F2617370748077E
:10132000AB07B0E809F0BB0B802DBF01FF27935836
:101330005F4F3AF09E3F510578F00C94540A0C949C
:101340009F0A5F3FE4F3983ED4F3869577956795BF
:10135000B795F7959F5FC9F7880F911D969587956B
:1013600097F90895E1E0660F771F881FBB1F62178A
:1013700073078407BA0720F0621B730B840BBA0B48
:10138000EE1F88F7E09508950E94840A88F09F5721
:1013900098F0B92F9927B751B0F0E1F0660F771F99
:1013A000881F991F1AF0BA95C9F714C0B13091F08F
:1013B0000E949E0AB1E008950C949E0A672F782F30
:1013C0008827B85F39F0B93FCCF386957795679554
:1013D000B395D9F73EF490958095709561957F4FC0
:1013E0008F4F9F4F0895E89409C097FB3EF4909566
:1013F0008095709561957F4F8F4F9F4F9923A9F0EE
:10140000F92F96E9BB279395F6958795779567957C
:10141000B795F111F8CFFAF4BB0F11F460FF1BC0C0
:101420006F5F7F4F8F4F9F4F16C0882311F096E953
:1014300011C0772321F09EE8872F762F05C0662301
:1014400071F096E8862F70E060E02AF09A95660FBA
:10145000771F881FDAF7880F9695879597F9089573
:10146000990F0008550FAA0BE0E8FEEF16161706B5
:10147000E807F907C0F012161306E407F50798F01D
:10148000621B730B840B950B39F40A2661F0232B36
:10149000242B252B21F408950A2609F4A140A695B2
:1014A0008FEF811D811D089597F99F6780E870E097
:1014B00060E008959FEF80EC089500240A941616CA
:1014C000170618060906089500240A941216130632
:1014D000140605060895092E0394000C11F48823C0
:1014E00052F0BB0F40F4BF2B11F460FF04C06F5FDC
:1014F0007F4F8F4F9F4F089557FD9058440F551FB2
:1015000059F05F3F71F04795880F97FB991F61F085
:101510009F3F79F087950895121613061406551FFC
:10152000F2CF4695F1DF08C0161617061806991F68
:10153000F1CF86957105610508940895E894BB275D
:1015400066277727CB0197F908950E94300A08F49F
:101550008FEF08950E94BD0A0C946B0A0E945D0AE9
:1015600038F00E94640A20F0952311F00C94540A7C
:101570000C945A0A11240C949F0A0E947C0A70F35E
:10158000959FC1F3950F50E0551F629FF001729F28
:10159000BB27F00DB11D639FAA27F00DB11DAA1F37
:1015A000649F6627B00DA11D661F829F2227B00D84
:1015B000A11D621F739FB00DA11D621F839FA00D0F
:1015C000611D221F749F3327A00D611D231F849F5F
:1015D000600D211D822F762F6A2F11249F575040B6
:1015E0009AF0F1F088234AF0EE0FFF1FBB1F661F31
:1015F000771F881F91505040A9F79E3F510580F0FA
:101600000C94540A0C949F0A5F3FE4F3983ED4F381
:10161000869577956795B795F795E7959F5FC1F79D
:10162000FE2B880F911D9695879597F908950E9436
:10163000300A880B990B0895A1E21A2EAA1BBB1B36
:10164000FD010DC0AA1FBB1FEE1FFF1FA217B3078E
:10165000E407F50720F0A21BB30BE40BF50B661FA4
:10166000771F881F991F1A9469F760957095809568
:1016700090959B01AC01BD01CF010895EE0FFF1FB6
:101680000590F491E02D0994F894FFCF000000003C
:10169000B7011701440104027501530167010000FD
:1016A000000000051701760224026E616E00696E6B
:1016B00066006F766600566F6C3D00205620004E27
:1016C0006976656C3D0020636D002C000D0A0000FA
:107E0000112484B714BE81FFF0D085E080938100F7
:107E100082E08093C00088E18093C10086E0809377
:107E2000C20080E18093C4008EE0C9D0259A86E02C
:107E300020E33CEF91E0309385002093840096BBD3
:107E4000B09BFECF1D9AA8958150A9F7CC24DD24C4
:107E500088248394B5E0AB2EA1E19A2EF3E0BF2EE7
:107E6000A2D0813461F49FD0082FAFD0023811F036
:107E7000013811F484E001C083E08DD089C08234E0
:107E800011F484E103C0853419F485E0A6D080C0E4
:107E9000853579F488D0E82EFF2485D0082F10E0AE
:107EA000102F00270E291F29000F111F8ED06801E7
:107EB0006FC0863521F484E090D080E0DECF843638
:107EC00009F040C070D06FD0082F6DD080E0C81688
:107ED00080E7D80618F4F601B7BEE895C0E0D1E017
:107EE00062D089930C17E1F7F0E0CF16F0E7DF06D8
:107EF00018F0F601B7BEE89568D007B600FCFDCFD4
:107F0000A601A0E0B1E02C9130E011968C91119780
:107F100090E0982F8827822B932B1296FA010C0160
:107F200087BEE89511244E5F5F4FF1E0A038BF0790
:107F300051F7F601A7BEE89507B600FCFDCF97BE46
:107F4000E89526C08437B1F42ED02DD0F82E2BD052
:107F50003CD0F601EF2C8F010F5F1F4F84911BD097
:107F6000EA94F801C1F70894C11CD11CFA94CF0C13
:107F7000D11C0EC0853739F428D08EE10CD085E9AC
:107F80000AD08FE07ACF813511F488E018D01DD067
:107F900080E101D065CF982F8091C00085FFFCCF94
:107FA0009093C60008958091C00087FFFCCF809118
:107FB000C00084FD01C0A8958091C6000895E0E648
:107FC000F0E098E1908380830895EDDF803219F02E
:107FD00088E0F5DFFFCF84E1DECF1F93182FE3DFCA
:107FE0001150E9F7F2DF1F91089580E0E8DFEE27F6
:047FF000FF270994CA
:027FFE00040479
:00000001FF
